:020000040000FA
:100000000C945D000C947A000C947A000C947A00A5
:100010000C947A000C947A000C947A000C943901B8
:100020000C947A000C947A000C947A000C947A0068
:100030000C947A000C947A000C947A000C947A0058
:100040000C94EF000C947A000C947A000C947A00D3
:100050000C947A000C947A000C947A000C947A0038
:100060000C947A000C947A00000000080002010051
:100070000003040700000000000000000200000070
:1000800000250028002B0000000000240027002A83
:100090000004040404040404040202020202020331
:1000A000030303030301020408102040800102043B
:1000B0000810200102040810200011241FBECFEFF9
:1000C000D8E0DEBFCDBF11E0A0E0B1E0EEEBF9E09B
:1000D00002C005900D92A032B107D9F721E0A0E24D
:1000E000B1E001C01D92AA33B207E1F70E94FC0102
:1000F0000C94DD040C940000EDEAF0E02491E9E9B1
:10010000F0E08491882399F090E0880F991FFC011A
:10011000E957FF4FA591B491FC01E358FF4F85913A
:1001200094918FB7F894EC91E22BEC938FBF0895E4
:100130003FB7F8948091360190913701A091380132
:10014000B091390126B5A89B05C02F3F19F0019643
:10015000A11DB11D3FBFBA2FA92F982F8827BC0121
:10016000CD01620F711D811D911D42E0660F771F49
:10017000881F991F4A95D1F708958F929F92AF9249
:10018000BF92CF92DF92EF92FF924B015C010E94EF
:1001900098006B017C010E9498006C197D098E0902
:1001A0009F09683E734081059105A8F321E0821AFA
:1001B0009108A108B10888EEC80E83E0D81EE11CA2
:1001C000F11C81149104A104B10429F7FF90EF9070
:1001D000DF90CF90BF90AF909F908F9008951F9227
:1001E0000F920FB60F9211242F933F938F939F93EB
:1001F000AF93BF938091320190913301A09134016C
:10020000B09135013091310123E0230F2D3758F59E
:100210000196A11DB11D209331018093320190936D
:100220003301A0933401B093350180913601909150
:100230003701A0913801B09139010196A11DB11D7E
:100240008093360190933701A0933801B093390120
:10025000BF91AF919F918F913F912F910F900FBEC2
:100260000F901F90189526E8230F0296A11DB11D2F
:10027000D2CF1F920F920FB60F9211242F933F935C
:100280008F939F93AF93BF93EF93FF93809125013B
:1002900090912601A0912701B0912801892B8A2BEA
:1002A0008B2BB1F190912001E0912101F09122017D
:1002B0008081892780838091250190912601A091DA
:1002C0002701B0912801181619061A061B069CF47E
:1002D0008091250190912601A0912701B0912801DC
:1002E0000197A109B1098093250190932601A0935C
:1002F0002701B0932801FF91EF91BF91AF919F919A
:100300008F913F912F910F900FBE0F901F901895D6
:1003100080910001ECE7F0E0E4919FEF9093000101
:10032000E13009F431C068F1E23009F433C090E003
:10033000FC01E859FF4F2491FC01EB55FF4F34912C
:10034000FC01EF56FF4FE491EE23A9F2222351F076
:10035000233009F43AC078F5213009F43CC022304A
:1003600009F43DC0F0E0EE0FFF1FE358FF4FA591E9
:10037000B4918FB7F894EC9130953E233C938FBFA6
:10038000BACF10926E00D3CF90916F009D7F909363
:100390006F00CDCF909170009D7F9093700091E0A1
:1003A0009093B0009091B100987F94609093B100C9
:1003B0001092B300BCCF2730A9F02830C9F0243008
:1003C00089F6809180008F7D03C0809180008F77B7
:1003D00080938000C7CF84B58F7784BDC3CF84B5A9
:1003E0008F7DFBCF8091B0008F778093B000BACF24
:1003F0008091B0008F7DF9CFCF93DF9300D000D0F4
:100400001F92CDB7DEB7789484B5826084BD84B581
:10041000816084BD85B5826085BD85B5816085BDFF
:1004200080916E00816080936E00109281008091B7
:10043000810082608093810080918100816080933F
:100440008100809180008160809380008091B10064
:1004500084608093B1008091B00081608093B0008F
:1004600080917A00846080937A0080917A00826023
:1004700080937A0080917A00816080937A008091E5
:100480007A00806880937A001092C1000E947C00FC
:10049000F8E44F2EF8EE5F2E66246394712CE1E0B1
:1004A0002E2EE1E03E2EF101019111911F0180916C
:1004B0000001883089F4ECE7F0E0F491FD83F7FD6A
:1004C0007EC10E947C00FD81FF2309F43AC08D812A
:1004D000823009F0BFC035C08F3F09F070C188E09D
:1004E00080930001ECE7F0E0F491FD83FF3F09F415
:1004F00066C1F13009F48EC048F0F23009F4CEC084
:10050000FD81F7FD5CC10E947C00E1CF14BC15BCED
:1005100084B5826084BD85B5816085BDE9E9F0E080
:100520008491E82FF0E0EE0FFF1FE358FF4F859115
:100530009491EDEAF0E08491809324010E947C0084
:100540001D824801B12CA12C60E072E18AE790E0A5
:10055000A50198010E94AF0429833A834B835C83F1
:1005600069017A0191E0C91AD108E108F108EFEFB9
:10057000CE16D104E104F10409F00CF4F5C060E4F6
:1005800072E48FE090E0A50198010E94AF04690138
:100590007A01F1E0CF1AD108E108F1088D818230AB
:1005A00009F0A1C082E09FEFC916D104E104F10473
:1005B00009F00CF4D2C060E970ED83E090E0A50191
:1005C00098010E94AF0469017A01E1E0CE1AD108D6
:1005D000E108F10883E0FFEFCF16D104E104F10454
:1005E00009F00CF4BAC0C301B201A50198010E9440
:1005F000AF0469017A0181E0C81AD108E108F10865
:100600009FEFC916D104E104F10411F00CF08DC084
:1006100084E0A3C01092800010928100809181003C
:100620008860809381008091810081608093810047
:10063000E9E9F0E08491E82FF0E0EE0FFF1FE358C6
:10064000FF4F85919491EDEAF0E08491809323012E
:100650000E947C00B12CA12C60E072E18AE790E05E
:10066000A50198010E94AF0469017A0181E0C81ACE
:10067000D108E108F108C114D10491E0E906F104C0
:100680000CF0B9C091E0FD81F13009F075C08091A6
:100690008100887F892B809381006EC01092B0000A
:1006A0001092B1008091B00082608093B000809180
:1006B000B10081608093B100E9E9F0E08491E82F16
:1006C000F0E0EE0FFF1FE358FF4F85919491909358
:1006D000220180932101EDEAF0E0849180932001D2
:1006E0000E947C002ECF8FEFC816D104E104F104E4
:1006F00009F00CF47EC0C301B201A50198010E946B
:10070000AF0469017A0191E0C91AD108E108F10842
:10071000ED81EE2309F4BBC0FFEFCF16D104E10455
:10072000F10409F00CF474CFBBC064E274EF80E014
:1007300090E0A50194010E94AF0469017A01F1E003
:10074000CF1AD108E108F1088FEFC816D104E104EF
:10075000F10411F008F0D1C085E09091B100987FCC
:10076000892B8093B10008C081E0FD81F111F5CFA4
:1007700095B5987F892B85BD9801220F331FA0E97D
:10078000B1E00E94CE0428EE33E040E050E00E9449
:100790008D048D818130F1F1823009F44DC08111D9
:1007A0000EC0C7BC20932D0130932E0140932F0122
:1007B0005093300180916E00826080936E0062ECF5
:1007C00071E080E090E00E94BD00EFE1F1E0E21511
:1007D000F30509F068CE68EE73E080E090E00E94D7
:1007E000BD0080E090E0892B09F459CE0E94000002
:1007F00056CE82E0BACFC301B201A50198010E9492
:10080000AF0469017A01E1E0CE1AD108E108F108EC
:1008100093E039CFD0928900C092880020932901BB
:1008200030932A0140932B0150932C0180916F004B
:10083000826080936F00C3CFC092B30020932501E4
:100840003093260140932701509328018091700036
:10085000826080937000B3CF84E09FEFC916D1040B
:10086000E104F10409F008F483CFC980DA80EB8059
:10087000FC809AE0F594E794D794C7949A95D1F7C1
:1008800081E0C81AD108E108F10885E071CF83E062
:10089000EFEFCE16D104E104F10409F00CF468CFB7
:1008A00062E17AE780E090E0A50194010E94AF0444
:1008B00069017A0191E0C91AD108E108F108ED81D6
:1008C000EE2351F286E0FFEFCF16D104E104F104EC
:1008D00009F008F442CFC980DA80EB80FC808AE01E
:1008E000F594E794D794C7948A95D1F7E1E0CE1AAE
:1008F000D108E108F10887E030CF62E17AE780E0D3
:1009000090E0A50194010E94AF0469017A0181E0A1
:10091000C81AD108E108F108D5CFA1E21A2EAA1B06
:10092000BB1BFD010DC0AA1FBB1FEE1FFF1FA2179F
:10093000B307E407F50720F0A21BB30BE40BF50B9C
:10094000661F771F881F991F1A9469F76095709525
:10095000809590959B01AC01BD01CF010895052EB6
:1009600097FB1EF400940E94C60457FD07D00E9416
:100970008D0407FC03D04EF40C94C60450954095AA
:10098000309521953F4F4F4F5F4F0895909580953B
:10099000709561957F4F8F4F9F4F0895A29FB00133
:1009A000B39FC001A39F700D811D1124911DB29FA3
:1009B000700D811D1124911D0895F894FFCFFF0241
:1009C000012001430157018101B201E601080244FF
:0E09D000028002AB02F1024D03B303FC0300F0
:107E0000112484B714BE81FFF0D085E080938100F7
:107E100082E08093C00088E18093C10086E0809377
:107E2000C20080E18093C4008EE0C9D0259A86E02C
:107E300020E33CEF91E0309385002093840096BBD3
:107E4000B09BFECF1D9AA8958150A9F7CC24DD24C4
:107E500088248394B5E0AB2EA1E19A2EF3E0BF2EE7
:107E6000A2D0813461F49FD0082FAFD0023811F036
:107E7000013811F484E001C083E08DD089C08234E0
:107E800011F484E103C0853419F485E0A6D080C0E4
:107E9000853579F488D0E82EFF2485D0082F10E0AE
:107EA000102F00270E291F29000F111F8ED06801E7
:107EB0006FC0863521F484E090D080E0DECF843638
:107EC00009F040C070D06FD0082F6DD080E0C81688
:107ED00080E7D80618F4F601B7BEE895C0E0D1E017
:107EE00062D089930C17E1F7F0E0CF16F0E7DF06D8
:107EF00018F0F601B7BEE89568D007B600FCFDCFD4
:107F0000A601A0E0B1E02C9130E011968C91119780
:107F100090E0982F8827822B932B1296FA010C0160
:107F200087BEE89511244E5F5F4FF1E0A038BF0790
:107F300051F7F601A7BEE89507B600FCFDCF97BE46
:107F4000E89526C08437B1F42ED02DD0F82E2BD052
:107F50003CD0F601EF2C8F010F5F1F4F84911BD097
:107F6000EA94F801C1F70894C11CD11CFA94CF0C13
:107F7000D11C0EC0853739F428D08EE10CD085E9AC
:107F80000AD08FE07ACF813511F488E018D01DD067
:107F900080E101D065CF982F8091C00085FFFCCF94
:107FA0009093C60008958091C00087FFFCCF809118
:107FB000C00084FD01C0A8958091C6000895E0E648
:107FC000F0E098E1908380830895EDDF803219F02E
:107FD00088E0F5DFFFCF84E1DECF1F93182FE3DFCA
:107FE0001150E9F7F2DF1F91089580E0E8DFEE27F6
:047FF000FF270994CA
:027FFE00040479
:00000001FF
